:020000040800F2
:10000000600400205111000861100008631000080E
:1000100000000000000000000000000000000000E0
:100020000000000000000000000000006510000853
:1000300000000000000000006710000869100008C0
:10004000670E00085F100008FF1000080B11000881
:1000500061110008631100086511000867110008AC
:10006000691100086B1100086D1100086F1100087C
:10007000711100087311000875110008771100084C
:1000800071100008791100087B1100087D1100082B
:100090007F110008811100088311000885110008F4
:1000A00087110008891100088B1100088D110008C4
:1000B0008F11000891110008931100089511000894
:1000C00010B5040001D1012010BD3D20205C0028A6
:1000D00004D13C216054200000F00DFB34E03D21B0
:1000E000415C012901D00120704702213D22815449
:1000F00002680121D3680B43D3600268254B9A4202
:1001000008D08B079A4205D0234B9A4202D0234B4A
:100110009A4205D192685207520F062A04D002680B
:1001200012681143006801600020704710B5040098
:1001300001D1012010BD3D20205C002804D13C21CC
:100140006054200000F0F6FA02203D216054211D89
:10015000206800F053F90120462160543E2160548C
:100160003F21605440216054412160544221605439
:100170004321605444216054452160543D21605422
:10018000002010BDA0543D22A0543C21605410BD5D
:1001900000000000002C014000040040004001402D
:1001A000F8B504002068002502260169314015D009
:1001B000C168314012D00221C94301610121217778
:1001C0008069800703D0200000F0B5FA05E0200028
:1001D00000F0B2FA200000F0B0FA2577206804277A
:1001E0000169394016D0C168394013D00421C94390
:1001F000016126778069C0218900014003D0200079
:1002000000F099FA05E0200000F096FA200000F0D6
:1002100094FA2577206808260169314014D0C16816
:10022000314011D00821C94301612777C069800797
:1002300003D0200000F07FFA05E0200000F07CFAF7
:10024000200000F07AFA25772068102102690A4020
:1002500016D0C268114013D01021C943016126771E
:10026000C069C0218900014003D0200000F063FA7A
:1002700005E0200000F060FA200000F05EFA25772B
:100280002068012102690A4008D0C268114005D0E7
:100290000121C9430161200000F050FA206880214B
:1002A00002690A4008D0C268114005D08021C943C4
:1002B0000161200000F043FA2068402102690A40F1
:1002C00008D0C268114005D04021C9430161200017
:1002D00000F036FA2068202102690A4008D0C2687E
:1002E000114005D02021C9430161200000F029FA06
:1002F000F1BD10B504003C20205C012801D1022092
:1003000010BD01203C23E054002A06D0042A08D066
:10031000082A0AD00C2A0CD00EE0206800F0ADF8B4
:100320000AE0206800F0E3F806E0206800F013F926
:1003300002E0206800F041F90020FFF726FF70B5C9
:1003400004003C20205C012801D1022070BD260061
:100350003C360125357002203D22A0542068826879
:10036000254B13408360086802003CD010283AD027
:10037000202838D0302836D040282DD050281DD005
:10038000602822D0702803D06B0398420AD02EE058
:10039000CB684A688968206800F076F9206881682F
:1003A000772208E0CB684A688968206800F06CF919
:1003B00020688168AA030A43826018E0CA68496815
:1003C000206800F033F950210EE0CA6849682068BF
:1003D00000F03DF9602107E0CA684968206800F034
:1003E00025F9402100E00100206800F045F93D209A
:1003F00025540020307070BD8800FFFFF0B50668FE
:10040000834A844B8024E405834DA84203D0A04254
:1004100001D0984208D17027BE4337004E683E4352
:10042000A8420ED0A0420CD098420AD07B4B9842F2
:1004300007D0904205D07A4B984202D07A4B98422E
:1004400003D1784B3340CE681E4380239E434B69D3
:10045000334303608B68C3620B688362A84207D092
:10046000904205D06E4A904202D06F4A904201D12C
:100470000969016301214161F0BDF8B5026A0123F8
:100480009A430262036A426884697325AC430D682B
:10049000254300950224A3438C681C43604B5C4DAC
:1004A0005D4EB04206D0A84204D0984202D05E4FC2
:1004B000B8420CD10827BC432700CC683C43042732
:1004C000BC43B04206D0A84204D0984202D0564B5A
:1004D000984205D1714B13404D691D438A692A43E7
:1004E0004260009A8261496841630462F1BD70B55F
:1004F000026A10239A430262026A436884695D4D6E
:1005000025400C6824022C432025AA438D682D0128
:100510001543414A904208D1802295432E00CA6873
:10052000150135434022954308E0394A904205D0F1
:100530003B4A904202D03C4A904206D1584A1A4067
:100540004B698E691E43B30013434360846149685D
:100550008163056270BD70B5026A524B134003623D
:10056000046A4268C56973239D430B682B434E4D53
:1005700025408C6824022C43274DA84207D14B4DBF
:100580002540CC6826022E43494C344008E0204DDB
:10059000A84205D0224DA84202D0234DA84206D140
:1005A000444D15404A698E69164332012A43426020
:1005B000C3614968C163046270BD30B5026A3E4BD5
:1005C00013400362036A4268C4692A4D25400C68DF
:1005D00024022C43394D1D408B681B032B430E4DC9
:1005E000A84208D00A4DA84205D00D4DA84202D01D
:1005F0000D4DA84204D1324D15404A6992012A435B
:100600004260C46149680164036230BD00000000BB
:100610000040014000040040002C01400020004048
:1006200000440140FFFCFFFF0048014030B5036A71
:10063000046A0125AC4304628469F025AC431201CD
:10064000224382610A2293431943016230BD30B5CF
:10065000036A1024A34303628469036A194D254089
:1006600012032A438261A0229343090119430162C4
:1006700030BD0000FF8CFFFF826870239A43114356
:1006800007220A438260704730B584680E4D2540CA
:1006900029430A4319021143816030BDFFFCFFFF6B
:1006A000FFF3FFFFFFFEFFFFFFFDFFFFFFF7FFFF71
:1006B000FFFBFFFFFFCFFFFFFFEFFFFFFFDFFFFFAE
:1006C000FFBFFFFFFF0FFFFFFF00FFFF81B0012013
:1006D00015490A6802430A600A68104000900098B1
:1006E000802040054A6802434A60496808400090FB
:1006F000009801B0704700680C49884200D07047EC
:1007000080B502200A490A6802430A600968084065
:100710000090009800220021102000F030F81020F6
:1007200000F031F801BD0000181002400004004044
:100730001C10024070477047704770477047704701
:100740007047704710B5C20018231340FF249C4027
:10075000E2438907090E9940030004D418489B0816
:100760009B00C01806E0174B0007000F08388008F0
:100770008000181803681A401143016010BD80B54D
:10078000FFF7E0FF01BD010005D40121C006C00E46
:1007900081400D480160704710B5401E802149041A
:1007A000884201D3012010BD084C60600321002065
:1007B000C043FFF7C7FF0020A0600721216010BDE4
:1007C00000E400E01CED00E000E100E010E000E0EB
:1007D000F8B506001BD09F4C3078C00719D580278C
:1007E000BF0260680C21014004290BD060680C2115
:1007F0000140082948D16068C021490201407808B9
:10080000814241D12068074003D07068002800D1A0
:10081000E9E1307880071FD5F827FF4360680C2195
:1008200001400CD060680C21014008295FD160684C
:10083000C0214902014080200002814257D1206836
:10084000800703D5F068012800D0CCE1206807407C
:100850003069C000384320603078000778D502271F
:10086000F0690028606A64D001210143616200F0F0
:1008700097FA0500606A38406AD100F091FA401B8F
:100880000228F7D90320F2BD72687908012A08D03E
:10089000B248002A09D0052A07D120688A000243FD
:1008A000226020680143216006E02168AC4A0A40CA
:1008B0002260216808402060706800280BD000F09A
:1008C0006FFA050020683840A3D100F069FA401B98
:1008D0006528F7D3D6E700F063FA050020683840B2
:1008E00097D000F05DFA401B6528F7D3CAE7F0689F
:1008F000002820680ED001210143216000F050FA49
:10090000050020688007A1D400F04AFA401B0228A5
:10091000F7D9B7E701218843206000F041FA0500CC
:100920002068800798D500F03BFA401B0228F7D9D1
:10093000A8E701218843606200F032FA0500606A8E
:10094000384005D000F02CFA401B0228F7D999E76F
:100950003078400761D50020009080204005E16993
:10096000014008D1E1690143E161E169084000907B
:100970000098012000909E4F3868C0050FD4386859
:10098000A10D0143396000F00BFA05003868C0057D
:1009900005D400F005FA401B6528F7D372E7B0686C
:1009A000012809D0002801D1206A0AE00528206A20
:1009B00007D1042101432162206A01210143216200
:1009C00006E0012188432062206A042188432062D6
:1009D0000227B06800280CD000F0E2F90500206A78
:1009E000384013D100F0DCF9401B82498842F6D32D
:1009F00048E700F0D5F90500206A384006D000F03D
:100A0000CFF9401B7B498842F6D33BE7009800288A
:100A100003D0E06978490140E1613078C00621D512
:100A20007069F825ED430422012851D1606B02431F
:100A30006263606B01210143616300F0B1F907005B
:100A4000606B800708D400F0ABF9C01B0228F7D90F
:100A500018E700BF00100240606B0540B069C0009D
:100A6000284360630C273078800614D560683840CE
:100A70000C2809D060683840082843D160687903A1
:100A80000140780381423DD1606BC00303D5306AD9
:100A9000012800D0A7E0706A002800D1A5E06168B5
:100AA0000F40082F00D189E08027BF049549022814
:100AB000206875D10140216000F072F905002068BE
:100AC00038404FD000F06CF9401B0228F7D9D9E626
:100AD0000421C9438842606B02D101406163BBE7D6
:100AE00002436263606B01218843606300F058F940
:100AF0000500606B8007B5D500F052F9401B022855
:100B0000F7D9BFE6802040020090306A002813D059
:100B1000802040020090606B00990143616300F007
:100B20003FF90500606B00990140B4D100F038F93D
:100B3000401B0228F6D9A5E6606B094901406163B4
:100B400000F02EF90500606B00990140A3D000F081
:100B500027F9401B0228F6D994E600BFFFFFFBFFF0
:100B6000FFFFFEFFE06A0F218843316B0143E16222
:100B7000606879490140F06A0843B16A01436160E5
:100B8000206879080143216000F00AF90500206817
:100B900038402AD100F004F9401B0228F7D971E649
:100BA0000140216000F0FCF80500206838401CD0AE
:100BB00000F0F6F8401B0228F7D963E6012812D0AE
:100BC0006068E16AC02252020240B36A9A420AD1C6
:100BD0000907090F326B914205D1F02189030140C9
:100BE000F06A814201D00120F2BD0020F2BD000078
:100BF0000070004089130000FFFFFFEFF8B504000C
:100C000065D0009155480068C107C90F009881421E
:100C10000CD25248016801229143009A0A430260B3
:100C20000068C107C90F0098814250D121684C4D1E
:100C3000022001420CD0490704D56968E022D200A5
:100C40000A436A606968F0229143A2680A436A60B5
:100C50000127216839402AD06168012902D128681A
:100C6000800308E0022902D12868800103E00329FB
:100C700003D1686BC00303D429E02A68104026D052
:100C80006868032290430143696000F089F8060018
:100C900068680C21014060688000814207D000F044
:100CA0007FF8801B2F498842F2D30320F2BD2B48E6
:100CB000009902683A4091420BD20168B943009A08
:100CC0000A430260006807400098874201D0012073
:100CD000F2BD2078400705D5686823490140E068E7
:100CE0000843686000F010F820496A681206120F85
:100CF000895CC8401E490860002000F057F80020B9
:100D0000F2BD0000FFFFFFFEF0B51A490B681A485C
:100D10001A4A0C241C40082C02D00C2C1AD0F0BD0E
:100D20000F2500BF16A49E0C2E40A45D18A6896A4C
:100D30000D40715DC0256D022E001E4080277F0290
:100D4000BE4203D02B40AB4200D1100000F050F85F
:100D50006043F0BD1000F0BDFF7FC2FF00200240E5
:100D60000010024089130000FFF8FFFF4011000847
:100D70000C0000200410024000127A00006CDC021B
:100D800002030405060708090A0B0C0D0E0F1010CC
:100D90000102030405060708090A0B0C0D0E0F10CB
:100DA00001484068704700BF0000002038B50500CA
:100DB0000D4CFA208000217800F01AF801000B4851
:100DC000006800F015F8FFF7E7FC00280AD1042DB1
:100DD00008D2002229000020C043FFF7D0FCA56004
:100DE000002032BD012032BD000000200C00002098
:100DF000094214D088420FD30122030C01D1000410
:100E00001204002300185B418B4200D35B1A52414D
:100E1000F8D319001000704701000020704708B592
:100E200000F020F808BD30B5016841184468620838
:100E30008A188368E40704D54C461B1901E0641C3A
:100E400009D1914203D00C7864B2491C01E00C3006
:100E500030BD0D78491C1D705B1C002CEFD4641E46
:100E6000F7D5EEE77047FEE730B58DB000F082F8B9
:100E700000F054F81022002109A800F08BF8082295
:100E80000021684600F086F81C22002102A800F02C
:100E900081F81F4C1F482060402060600025A5603D
:100EA0001D48E0602561A5612000FFF709F90028D1
:100EB00001D000F05DF880204001099009A92000D0
:100EC000FFF73DFA002801D000F052F82000FFF7AC
:100ED0002DF9002801D000F04BF8009501956946E6
:100EE000200000F061F8002801D000F041F80295E0
:100EF000039504950695002202A92000FFF7F9F951
:100F0000002801D000F034F82000FFF7E8F8FEE7F1
:100F10001000002000040040B80B000018B591B08C
:100F20003422002104A800F035F810220021684680
:100F300000F030F802200490012007901020089063
:100F400000240D9404A8FFF743FC002801D072B6DA
:100F5000FEE7072000900194029403940021684664
:100F6000FFF74CFE002801D072B6FEE712B010BDAC
:100F700072B6FEE780B50648016810220A43026097
:100F80000020FFF713FFFFF7A1FB002002BD0000C8
:100F90000020024010B504000800110002002000EB
:100FA00000F036F8200010BDF0B53C22825C012A2A
:100FB00001D10220F0BD02003C3201231370022453
:100FC0003D25445505686E68AC687027BE430F68C0
:100FD00037436F6005680B4EB54208D09E07B54297
:100FE00005D0094EB54202D0084EB54204D1802644
:100FF000B44349682143A9603D2143540020107047
:10100000F0BD0000002C0140000400400040014001
:101010001206130A1A43130C1A4300BF094205D0E3
:10102000830705D00270401C491EF9D170470000AB
:101030001300103906D330B41400150010393CC029
:10104000FCD230BC490700D30CC000D504C08900D5
:1010500002D30280801C002900D502707047FEE791
:10106000FEE7FEE77047704780B500F00FF801BD5E
:1010700080B50448FFF794F803480188491C0180B3
:1010800001BD000010000020580000200248416807
:1010900002788918416070470000002010B50749A8
:1010A00079441831064C7C44163404E0081D0A6863
:1010B000891888470100A142F8D110BD080000003E
:1010C0001400000063FDFFFFCE0000001A000000C6
:1010D0000000002000F00DF8002801D0FFF7DEFF2F
:1010E00000BF00BF002000BF00BFFFF7BDFE00F043
:1010F00002F80120704780B500F002F801BDFEE75C
:101100000746384600F002F8FBE7FEE780B500BF6F
:1011100000BF024A11001820ABBEFBE72600020008
:101120000548014603B4684680F3098800BF00BF44
:1011300000BF00BFFFF7CEFFA5EDF5FE7047000032
:101140000000000000000000010203040607080977
:1011500001488047014800473D110008211100085F
:10116000FEE7FEE7FEE7FEE7FEE7FEE7FEE7FEE757
:10117000FEE7FEE7FEE7FEE7FEE7FEE7FEE7FEE747
:10118000FEE7FEE7FEE7FEE7FEE7FEE7FEE7FEE737
:10119000FEE7FEE7FEE70001F9000004FC00011293
:0311A0007AB5001D
:0400000508001121BD
:00000001FF
