:020000040800F2
:1000000010040020390C0008590C00085B0C000893
:1000100000000000000000000000000000000000E0
:100020000000000000000000000000005D0C00085F
:1000300000000000000000005F0C0008610C0008D8
:1000400017070008930700087F0B0008E70B00085C
:10005000F30B0008790C00087B0C00087D0C0008ED
:100060007F0C0008810C0008830C0008850C000838
:10007000870C0008890C00088B0C00088D0C000808
:100080008F0C0008910C0008930C0008950C0008D8
:10009000970C0008990C00089B0C00089D0C0008A8
:1000A0009F0C0008A10C0008A30C0008A50C000878
:1000B000A70C0008A90C0008AB0C0008AD0C000848
:1000C000F8B506001BD09F4C3078C00719D58027A3
:1000D000BF0260680C21014004290BD060680C212C
:1000E0000140082948D16068C021490201407808D0
:1000F000814241D12068074003D07068002800D1B8
:10010000E9E1307880071FD5F827FF4360680C21AC
:1001100001400CD060680C21014008295FD1606863
:10012000C0214902014080200002814257D120684D
:10013000800703D5F068012800D0CCE12068074093
:100140003069C000384320603078000778D5022736
:10015000F0690028606A64D001210143616200F007
:1001600097FA0500606A38406AD100F091FA401BA6
:100170000228F7D90320F2BD72687908012A08D055
:10018000B248002A09D0052A07D120688A00024314
:10019000226020680143216006E02168AC4A0A40E1
:1001A0002260216808402060706800280BD000F0B1
:1001B0006FFA050020683840A3D100F069FA401BAF
:1001C0006528F7D3D6E700F063FA050020683840C9
:1001D00097D000F05DFA401B6528F7D3CAE7F068B6
:1001E000002820680ED001210143216000F050FA60
:1001F000050020688007A1D400F04AFA401B0228BD
:10020000F7D9B7E701218843206000F041FA0500E3
:100210002068800798D500F03BFA401B0228F7D9E8
:10022000A8E701218843606200F032FA0500606AA5
:10023000384005D000F02CFA401B0228F7D999E786
:100240003078400761D50020009080204005E169AA
:10025000014008D1E1690143E161E1690840009092
:100260000098012000909E4F3868C0050FD4386870
:10027000A10D0143396000F00BFA05003868C00594
:1002800005D400F005FA401B6528F7D372E7B06883
:10029000012809D0002801D1206A0AE00528206A37
:1002A00007D1042101432162206A01210143216217
:1002B00006E0012188432062206A042188432062ED
:1002C0000227B06800280CD000F0E2F90500206A8F
:1002D000384013D100F0DCF9401B82498842F6D344
:1002E00048E700F0D5F90500206A384006D000F054
:1002F000CFF9401B7B498842F6D33BE700980028A2
:1003000003D0E06978490140E1613078C00621D529
:100310007069F825ED430422012851D1606B024336
:100320006263606B01210143616300F0B1F9070072
:10033000606B800708D400F0ABF9C01B0228F7D926
:1003400018E700BF00100240606B0540B069C000B4
:10035000284360630C273078800614D560683840E5
:100360000C2809D060683840082843D160687903B8
:100370000140780381423DD1606BC00303D5306AF0
:10038000012800D0A7E0706A002800D1A5E06168CC
:100390000F40082F00D189E08027BF04954902282B
:1003A000206875D10140216000F072F905002068D5
:1003B00038404FD000F06CF9401B0228F7D9D9E63D
:1003C0000421C9438842606B02D101406163BBE7ED
:1003D00002436263606B01218843606300F058F957
:1003E0000500606B8007B5D500F052F9401B02286C
:1003F000F7D9BFE6802040020090306A002813D071
:10040000802040020090606B00990143616300F01E
:100410003FF90500606B00990140B4D100F038F954
:10042000401B0228F6D9A5E6606B094901406163CB
:1004300000F02EF90500606B00990140A3D000F098
:1004400027F9401B0228F6D994E600BFFFFFFBFF07
:10045000FFFFFEFFE06A0F218843316B0143E16239
:10046000606879490140F06A0843B16A01436160FC
:10047000206879080143216000F00AF9050020682E
:1004800038402AD100F004F9401B0228F7D971E660
:100490000140216000F0FCF80500206838401CD0C5
:1004A00000F0F6F8401B0228F7D963E6012812D0C5
:1004B0006068E16AC02252020240B36A9A420AD1DD
:1004C0000907090F326B914205D1F02189030140E0
:1004D000F06A814201D00120F2BD0020F2BD00008F
:1004E0000070004089130000FFFFFFEFF8B5040023
:1004F00065D0009155480068C107C90F0098814236
:100500000CD25248016801229143009A0A430260CA
:100510000068C107C90F0098814250D121684C4D35
:10052000022001420CD0490704D56968E022D200BC
:100530000A436A606968F0229143A2680A436A60CC
:100540000127216839402AD06168012902D1286831
:10055000800308E0022902D12868800103E0032912
:1005600003D1686BC00303D429E02A68104026D069
:100570006868032290430143696000F089F806002F
:1005800068680C21014060688000814207D000F05B
:100590007FF8801B2F498842F2D30320F2BD2B48FD
:1005A000009902683A4091420BD20168B943009A1F
:1005B0000A430260006807400098874201D001208A
:1005C000F2BD2078400705D5686823490140E068FE
:1005D0000843686000F010F820496A681206120F9C
:1005E000895CC8401E490860002000F057F80020D0
:1005F000F2BD0000FFFFFFFEF0B51A490B681A4874
:100600001A4A0C241C40082C02D00C2C1AD0F0BD25
:100610000F2500BF16A49E0C2E40A45D18A6896A63
:100620000D40715DC0256D022E001E4080277F02A7
:10063000BE4203D02B40AB4200D1100000F050F876
:100640006043F0BD1000F0BDFF7FC2FF00200240FC
:100650000010024089130000FFF8FFFF280C00087B
:100660000C0000200410024000127A00006CDC0232
:1006700002030405060708090A0B0C0D0E0F1010E3
:100680000102030405060708090A0B0C0D0E0F10E2
:1006900001484068704700BF0000002038B50500E1
:1006A0000D4CFA208000217800F01AF801000B4868
:1006B000006800F015F800F050F800280AD1042D69
:1006C00008D2002229000020C04300F042F8A560B3
:1006D000002032BD012032BD000000200C000020AF
:1006E000094214D088420FD30122030C01D1000427
:1006F0001204002300185B418B4200D35B1A524165
:10070000F8D319001000704701000020704708B5A9
:1007100000F03EF808BDFEE710B5C20018231340F4
:10072000FF249C40E2438907090E9940030004D44A
:1007300014489B089B00C01806E0134B0007000FED
:10074000083880088000181803681A4011430160B7
:1007500010BD80B5FFF7E0FF01BD10B5401E802140
:100760004904884201D3012010BD084C6060032178
:100770000020C043FFF7D0FF0020A06007212160C8
:1007800010BD000000E400E01CED00E010E000E01F
:100790007047FEE7FFB50022012301932BE00526F9
:1007A00003E0664EB042FAD10426AE402643029CD6
:1007B0002660634C2668DC4326404D68ED0300D577
:1007C0001E435F4D2E606E6826404F68BF0300D504
:1007D0001E436E60AE6826404F68FF0200D51E4380
:1007E000AE60EE6834404E68B60202D526001C00AA
:1007F0003443EC60521C0B681C00D44000D187E0ED
:10080000019D95402B40F5D054000327A740FE439F
:1008100002964E68012E05D0022E03D0112E01D073
:10082000122E0FD18768029E3E40CF68A740374303
:1008300087604668AE434D682D09019F2F40974061
:1008400037434760C568029E2E408D68A5403543FA
:10085000C56095006E4675704D68022D01D0122D51
:100860001AD1D508AD0045192E6A03966E467778E1
:100870001C263E406F463E70039EB4460F276E46D0
:100880003678B7406646BE43B4460F696E46367842
:10089000B740664637432F6207680326029D3D40F6
:1008A0004F683740BC4627006446BC402C43046078
:1008B0004C68E4009ED5234C2468019D2543214CBF
:1008C00025602468019D25400295029C1E4C9508D8
:1008D000AD006419029424686D466F780C253D4084
:1008E0000F27AF40BC439027FF05B84201D1002637
:1008F0005BE7164FB84201D1019E56E7144FB8424C
:1009000001D1022651E7134FB84200D049E74CE726
:10091000FFBD0069084000D00120C0B27047002A26
:1009200001D0816170478162704742690B001340BA
:100930001B04914319438161704700000010004877
:100940000004014018100240080001400004004863
:1009500000080048000C004870B586B000F08AF826
:1009600000F05EF81422002101A800F093F8802026
:10097000800229490A6802430A600A681040009010
:100980000098802000030A6802430A600968084052
:1009900000900098214E012240213000FFF7BFFF58
:1009A0000124019400250295039501A99020C0051A
:1009B000FFF7F0FEC02001900294039503200490FD
:1009C00001A93000FFF7E6FE40240122402130005B
:1009D000FFF7A5FF02E0802440250AE001219020D6
:1009E000C005FFF796FF01280DD1802CF3D14024DC
:1009F0008025012221003000FFF791FF002229000D
:100A00003000FFF78CFF21003000FFF78EFFFA2047
:100A1000400000F049F8E1E71410024000080048E7
:100A200018B591B03422002104A800F033F8102248
:100A30000021684600F02EF8022004900120079063
:100A40001020089000240D9404A8FFF739FB00281B
:100A500001D072B6FEE7072000900194029403943F
:100A600000216846FFF742FD002801D072B6FEE77C
:100A700012B010BD80B50648016810220A4302601A
:100A80000020FFF70BFE00F023F8002002BD00005D
:100A90000020024010B504000800110002002000F0
:100AA00000F02EF8200010BD38B50500FFF7F0FD6E
:100AB00004000020C043854202D0044800782D186D
:100AC000FFF7E6FD001BA842FAD331BD000000206D
:100AD00081B0012009490A6802430A600A6810408F
:100AE00000900098802040054A6802434A604968A7
:100AF00008400090009801B0704700BF18100240F5
:100B00001206130A1A43130C1A4300BF094205D0F8
:100B1000830705D00270401C491EF9D170470000C0
:100B20001300103906D330B41400150010393CC03E
:100B3000FCD230BC490700D30CC000D504C08900EA
:100B400002D30280801C002900D50270704730B4A7
:100B500001220EE00368C31844680830144202D032
:100B60004D462C19641E1D6825601B1D241D091F80
:100B7000F9D10168001D0029ECD130BC7047FEE7B7
:100B800010B5074979441831064C7C44163404E00A
:100B9000081D0A68891888470100A142F8D110BDD4
:100BA0000800000018000000A7FFFFFF1000000071
:100BB000B8000000000000200000000000F00DF868
:100BC000002801D0FFF7DCFF00BF00BF002000BFFE
:100BD00000BFFFF7C1FE00F002F80120704780B5AA
:100BE00000F002F801BDFEE70746384600F002F8C3
:100BF000FBE7FEE780B500BF00BF024A11001820E6
:100C0000ABBEFBE7260002000548014603B4684678
:100C100080F3098800BF00BF00BF00BFFFF7CEFF11
:100C2000A5EDF5FE70470000000000000000000088
:100C300001020304060708090148804701480047EC
:100C4000250C0008090C0008024841680278891840
:100C50004160704700000020FEE7FEE770477047E4
:100C600080B5FFF7F1FF01BD0100000000000000AA
:100C70000400000000127A00FEE7FEE7FEE7FEE750
:100C8000FEE7FEE7FEE7FEE7FEE7FEE7FEE7FEE73C
:100C9000FEE7FEE7FEE7FEE7FEE7FEE7FEE7FEE72C
:0E0CA000FEE7FEE7FEE7FEE7FEE7FEE7FEE703
:0400000508000C09DA
:00000001FF
