:020000040800F2
:10000000280700206D320008A9310008AB31000834
:1000100000000000000000000000000000000000E0
:10002000000000000000000000000000AD310008EA
:100030000000000000000000AF310008B1310008EE
:10004000BB1100085B1300086F1800087318000844
:1000500077180008E72D0008E73000080332000891
:1000600013320008473200087D3200087F32000852
:10007000B931000881320008833200088532000857
:1000800087320008893200088B3200088D32000860
:100090008F32000891320008933200089532000830
:1000A00097320008993200089B3200089D32000800
:1000B0009F320008A1320008A3320008A5320008D0
:1000C000FDB5B2B03A98049102A93B2288540020B1
:1000D0000D9024A8401C2F900DE00498329A904770
:1000E0000490002801D100F001FF0D98401C0D90F4
:1000F0003398401C339033980178002910D025297B
:10010000EBD100200790089009900A900B900C907A
:10011000002102240120149008201290339D05E054
:100120000D9800F0E5FE0800149901436D1C287835
:100130002028F8D023280BD02B2804D02D2804D039
:10014000302808D00AE02143F0E708000421ECE75A
:1001500008000821E9E708001021E6E72A280FD166
:10016000349802681068121D349B1A600F900028A2
:1001700004D542420F920800042101436D1C12E095
:1001800000200F90654A09E00F9B934205DA9E001C
:10019000F3185B00181830380F906D1C2878030096
:1001A000303B0A2BF0D328782E2803D00020C04300
:1001B0000E9027E06D1C28782A2808D13498006812
:1001C0000268001D349B18600E926D1C1AE02D28E9
:1001D00002D12D226D1C00E0002200200E900CE0C8
:1001E000002A09D10E9B4D4EB34205DA9E00F3184A
:1001F0005B00181830380E906D1C28780300303BD7
:100200000A2BEDD302A801872E78310041487844AB
:10021000FF30C01C00F052FF002801D06D1C00E030
:10022000002602A83A214654405C682804D1287868
:1002300068280BD1622005E06C2807D128786C284B
:1002400004D1712002A93A2288546D1C15A8069089
:10025000287869460870681C339068460278100058
:10026000253833D01C3800D118E2001F022800D8EE
:1002700014E2133801D100F065FD093800D10DE218
:10028000801E01D100F0FBFD401E01D100F0A8FD51
:10029000401E022800D801E2001F01D100F0A0FD9D
:1002A000401F00D153E1401E01D100F04BFD401E24
:1002B00000D1F3E0C01E10D0801E01D100F042FD3D
:1002C000C01E01D100F03EFD00F0E4FD252015A97F
:1002D00008701498079000F0E8FD349800680468EE
:1002E000001D349908600594002C00D0C2E002A8DB
:1002F0003B21405C002800D1B5E00024E4430648DF
:100300007844143000F022FF201A01D000F0EEFDF6
:1003100000F0CBFD142D0000482D0000CBCCCC0C00
:1003200001236A4602A9280000F0ADFE002801D092
:1003300000F0DCFD641EF3D13295079D15AC002D55
:100340000FD0329E227802A9300000F08BFE0028E8
:1003500002D4641C6D1EF5D13296002801D000F045
:10036000C5FD3020694608700A9C002C0DDD329DC9
:1003700001236A4602A9280000F085FE002801D06A
:1003800000F0B4FD641EF3D13295059C089D002D4C
:100390000FD0329E227802A9300000F063FE0028C0
:1003A00002D4641C6D1EF5D13296002801D000F0F5
:1003B0009DFD302769460F700B9C002C0DDD329D92
:1003C00001236A4602A9280000F05DFE002801D042
:1003D00000F08CFD641EF3D13295059808994418FD
:1003E000099D002D0FD0329E227802A9300000F026
:1003F00039FE002802D4641C6D1EF5D13296002807
:1004000001D000F073FD684607700C9C002C0DDDD8
:10041000329D01236A4602A9280000F034FE00281C
:1004200001D000F063FD641EF3D1329502A838219B
:10043000405C400700D45EE62020694608700198C1
:10044000002800DC57E6019C329D01236A4602A980
:10045000280000F018FE002801D000F047FD641EBF
:10046000F3D1329547E640487844FF30C01E0590EE
:1004700000F01BFD0E9D002D03D5200000F08AFE2C
:1004800009E02A000021200000F08CFE002801D0A5
:10049000001B00E02800089000F007FD3498006879
:1004A0000268001D349908600020C04300211040FC
:1004B00002AA03C215A80590069A3C2302A803C805
:1004C000002904D1002802D10E9C002C15D05B1EFF
:1004D00005072D0F3035EEB23A2E08DAD554000953
:1004E0000C072043090904D1002802D105E0273573
:1004F000F4E7059CD518AC42E9D33C20C01A08901B
:10050000D11805910E99884208DA081A0A9002A8B3
:10051000018FAA4A0A40028700F0C7FC002901D4D3
:1005200000F0C3FC02A93822895C14220A40102A78
:1005300001D000F0BAFC0F99079A891A0A9A891A11
:10054000081A002801DC00F0B0FC00F0F9FB02A85A
:100550003B21415C002909D00024E4434B48784406
:10056000FF302B30CEE600BF142B00003A21405C58
:1005700062286AD0682819D06A2845D06C2806D02D
:1005800071284FD0742831D07A2821D06FE0349868
:1005900000680168001D349A106000297AD1002497
:1005A000E4433B487844FF301738ABE634980068A2
:1005B0000168001D349A1060002905D10024E4432D
:1005C00033487844CA309DE60D98088000F06DFCF1
:1005D000349800680168001D349A1060002959D1D0
:1005E0000024E4432A487844A6308BE63498006817
:1005F0000168001D349A106000294BD10024E443A7
:10060000234878448A307DE6349800680268001DEB
:1006100034990860002A13D10024E4431C4878442C
:100620006E306FE6349800680268001D34990860E7
:10063000002A05D10024E44315487844523061E68D
:100640000D98C11703C200F030FC349800680168AF
:10065000001D349A1060002905D10024E4430C48A1
:1006600078442C304EE60D98087000F01EFC34984B
:1006700000680168001D349A106000290AD1002426
:10068000E4430348784408303CE600BFA429000056
:10069000B82900000D98086000F007FC3498036842
:1006A000DB1D072083433498036003CB349D2B600C
:1006B00002AB03C32023C80F04D007982D2115AB2C
:1006C00019540DE002A8008F204204D007982B2176
:1006D00015AB195404E0C00704D5079815A90B54AD
:1006E000401C079015A807994318059324AD02A84C
:1006F000C0C868460078202101436846817061299E
:1007000009D00E98002801D5062003E003D16729FF
:1007100001D114980E9002A803C808004C0064157B
:10072000641C0ED109030CD003200890613A1A2AE8
:1007300003D22349794488310FE022497944843136
:100740000BE0002C0ED100030CD103200890613A7D
:100750001A2A1DD31C4979446E310322180000F077
:1007600047FDA2E301AA02A803C800F04EFD02AAB9
:1007700003C268468078612813D105983021017042
:10078000811C059169460978612905D1782104E029
:100790000E4979443631E0E7582141700798801CB2
:1007A000079002A803C893A20CCA02400B400FD1C5
:1007B000002A0DD10024002661E100BFEFFF0000F8
:1007C000C0280000C0280000C4280000BC28000089
:1007D00068468078612800D099E00E98002801D5FD
:1007E000212000E0401C13901398401C2E903000F4
:1007F00039000022002300F01DFD02A830C802D2FB
:100800008020000645400198001F019024A90A702D
:1008100024A8461C2E98002832DD2E9F2000290097
:10082000002280235B0300F01EFD29D81C2200F06B
:1008300033FD04000D0000F067FD2E90FF1F002F18
:1008400009DD00F09BFD02000B002000290000F0F4
:10085000FCFD04000D00F01D07212E9A002A0ADD80
:10086000491E08D4401E13071B0F03701211F5E731
:10087000401E00220270491EFAD5C61D002FCDDC95
:1008800024A82F99711A24AA551C139A0C0091427E
:1008900000DD1400002C33D48C4205DA411C095DC4
:1008A000082901DB0F2100E00021220024AB9B1866
:1008B00001E0641E5B1E521E1E788E42F9D00F2985
:1008C00004D1411C895C491C401C8154002A04D578
:1008D00024AD641C0198001D0190611E10D46A189B
:1008E0006846007813783033DEB23A2E01DBC31845
:1008F000C6331370491E521E0029F3D5694608708D
:100900000E98002800D4B9E0601E0E90B6E07F007B
:100910007F08019868494843684900F00DFE01903E
:1009200007200199401A002805DD02003000390037
:1009300000F072FB0AE042420020614900F06CFBCB
:1009400002000B003000390000F025FE6A46927864
:10095000662A02D1019A0A3200E006220E9B9A18FA
:10096000142A00DD142224AB30241C705C1C02E02D
:1009700030A803C8139A002A40DD30AB03C313929A
:1009800030A803C800F0D2FC2E9006460834042597
:1009900030000A2100F0E4FD0F0030000A2100F0D1
:1009A000DFFD06003037601E077030000A2100F0BE
:1009B000D7FD0F0030000A2100F0D2FD0600A41E72
:1009C000303727706D1EE3D1083413980838139020
:1009D0000028CDDD2E9800F0C1FC02000B0030A8ED
:1009E00003C800F032FD0022364B00F035FE30AA7D
:1009F00003C2C5E7FFFFFFFFFFFFFF7F2F98201A0D
:100A000024A94D1C04E0401E0199491E01916D1C52
:100A100029783029F7D069468978662902D1019969
:100A2000491C06E069468978652901D1149900E0DE
:100A300000210E9A5418A04200DA441E002C1DD446
:100A4000844204DA285D342801DD392100E03021B8
:100A50002200681E831801E0641E5B1E521E1E7871
:100A60008E42F9D0392902D1A95C491CA954002A27
:100A700004D50500641C0198401C0190019E13954B
:100A8000684600786946487000F0A8FE406A007821
:100A9000694608700E9D20B2002804DC149C0548AD
:100AA0007844103013906846807866280CD1761C04
:100AB00024E000BFDC25000097750000A08601003F
:100AC0000000F03F84D7974168468078672846D178
:100AD00030B20321C943884247DBA84245DA761C7D
:100AE00002A8008F1299C0B2084203D120B2A842D6
:100AF00000DC050030B22D1A00D5002537B2002FDA
:100B000000DDBAE00898411C08913021059A115483
:100B1000002D05DC02A8008F1299C0B2084206D051
:100B20000898411C089169460978059A1154784241
:100B3000854200DA6E4236B270420B90AD1920B297
:100B4000854200DA2C0024B20994220013990598FA
:100B5000089BC01800F04CFB281B0C90DAE068469C
:100B60004078612818D170201BE020B2A84206DA34
:100B700002A9098F129AC9B2114200D105006D1E57
:100B800000D5002568464078672802D1652069466F
:100B900007E04520694604E068464078412801D1D5
:100BA000502048700898411C089113990978059ABB
:100BB00011541398411C002D05DC02A8008F129AD5
:100BC000C0B2104219D00898421C08926A461278A6
:100BD000059B1A54002D10DD641E20B2854200DAF8
:100BE0002C0022B20598089BC01800F001FB24B22B
:100BF000089800190890281B0B9005980899401830
:100C000069464978017031B2002903D42B21417023
:100C1000871C03E02D224270871C4E42002412AD37
:100C2000300008E00A2100F087FC30AA03C22970D6
:100C30003098641C6D1C00B20028F3DC012C08DC29
:100C40006846407820210143652902D13020387060
:100C50007F1C002C09D1302038707F1C07E0641EF7
:100C600012A8005D303038707F1C002CF7DC05982E
:100C700008994018381A09904CE020B231B28842E5
:100C80001DDA22B213990598089BC01800F0B0FA3B
:100C900024B2089800190890391B0B91002D05DC2F
:100CA00002A9098F129AC9B2114206D06946097881
:100CB000059A11540998401C09900C952AE032B20B
:100CC00013990598089BC01800F092FA0898C0196B
:100CD0000890A41B002D05DC02A9098F129AC9B245
:100CE000114205D0411C089169460978059A1154B2
:100CF00020B2854200DA2C0022B21398C11905985F
:100D0000089BC01800F074FA24B2089800190890E3
:100D1000281B0B9002A83821405C142101401029A7
:100D200000D0C2E00798089940180B99401809991B
:100D300040180C9940180F99884200DBB5E0081A5A
:100D40000A90B2E002AA3A20105C622808D0682813
:100D50000ED06A2814D06C281DD0712810D01AE04B
:100D6000349801680868091D349B1960C0B218E006
:100D7000349801680868091D349B196080B210E03E
:100D800034980368DB1D072083433498036003CB4A
:100D9000349C236006E0349801680868091D349B80
:100DA0001960002102AB03C3108F1299C0B2084230
:100DB0005BD002A803C8002901D1002855D068469D
:100DC00000782021014378294FD1079815A93022B6
:100DD0000A54401C421C07926A4612780A5444E0A6
:100DE00002AA3A20105C622808D068280ED06A282F
:100DF00014D06C281DD0712810D01AE034980168E6
:100E00000868091D349B196040B218E034980168E5
:100E10000868091D349B196000B210E0349803681B
:100E2000DB1D072083433498036003CB349D2B6084
:100E300006E0349801680868091D349B1960C117E1
:100E400002AB03C3002902DA07982D2109E0108FB5
:100E5000204202D007982B2103E0C00705D5079850
:100E6000202115AA1154401C079015A80799401875
:100E700005906846017802A800F03CF815E0149847
:100E80000790349800680168001D349A106015A816
:100E900001700AE0252015A908701498079068468B
:100EA0000078002801D04A7007940F980799401ADB
:100EB0000A99401A0899401A0B99401A0999401A40
:100EC0000C99401A019002A83821405C400701D5D6
:100ED000FFF733FA2020694608700198002801DCEA
:100EE000FFF72BFA019C329DFFF71AFA0020C0434E
:100EF00035B0F0BDF2B586B0040025696F2901D187
:100F0000082707E0084620210143782901D00A2755
:100F100000E010273C2603CC083C04AA03C26A4622
:100F2000127E642A03D06A46127E692A09D10029FA
:100F300007DA04A803C800220023121A8B4104A870
:100F40000CC004A803C800290DD100280BD1206BC8
:100F5000002808D1082F3DD13820205C000739D562
:100F60003B26302035E00294009504A830C8761E58
:100F70000196200029003A00FB1700F035FC3032C2
:100F8000D0B23A280DDA00988255200029003A00A4
:100F9000FB1700F029FC04000D0007D1002C05D13F
:100FA0000AE06846007E8218AF32ECE70298C0681B
:100FB000009989198842DAD3029C009D082F09D133
:100FC0003820205C000705D5A85D302802D0761EA9
:100FD0003020A8553C20801BA061A919E160216B3D
:100FE000884206DA081A2062208F1C4901402187B6
:100FF00010E000290ED53821615C14220A40102A25
:1010000008D1616B6269891A226A891A081A002854
:1010100000DD206207B0F0BDF8B50026104F0400D7
:101020000D00009214E0C00707D532003B002000FD
:10103000290000F011FB04000D0000984010009002
:101040003000390032003B0000F006FB06000F00C4
:1010500000980028E7D120002900F4BDEFFF000030
:101060000000244010B503000C001100A068984750
:10107000A060002804D0E06A401CE062002010BD9F
:101080000020C04310BDF8B50024002B11D007008C
:101090000E0014001D002178B068B847B060002829
:1010A00009D0F06A401CF0620020641C6D1EF2D171
:1010B00004002000F2BD0020C043F9E7C9B2027865
:1010C0008A4203D0401C002AF9D100207047F1B4B5
:1010D0000168421841684808131800988068C907D9
:1010E0001ED5494640181BE01778521C0770401C5B
:1010F000761EF9D1002C13D01678521C89080D40A9
:10110000032D01D11578521C290271184D42411945
:10111000A41C05D00D78491C0570401C641EF9D133
:101120009A420FD01178521C032503260E4002D19B
:101130001678F61C521C0C090F2CD9D114780F34D8
:10114000521CD5E700980C30F2BC704780B50028DF
:1011500001D100BF07A006490B68002B03D0222253
:101160000021984701E000F07DFB222002BD000035
:1011700020030020636F6E73747261696E7420685F
:10118000616E646C65723A20626164206D65737390
:1011900061676500431C0178401C0942FBD1C01AFD
:1011A00070472E00C9B2521E05D30378401C8B42F3
:1011B000F9D1401E704700207047FEE770B4103A26
:1011C00003D378C9103A78C0FBD2530701D318C9AA
:1011D00018C001D508C908C0D20704D30B88038002
:1011E000891C801C002A01D50B78037070BC7047E5
:1011F0008B0701D18307E1D0124205D00B78491C3F
:101200000370401C521EF9D1704710B5144600F00F
:1012100002F8226010BD4A0053155B1C08D0520D25
:1012200006D003231B02FE3AD21A1305C91A7047CF
:101230000022704730B4012464054D00EC420BD805
:101240005D00EC4208D80C001C43640004431443C6
:1012500004D2994200D1904230BC7047FCD08B42FE
:10126000FAD18242F8E730B4012464054D00EC4223
:101270000BD85D00EC4208D80C001C43640004430A
:10128000144304D28B4200D1824230BC7047FCD060
:101290009942FAD19042F8E7124217D40023DB4377
:1012A0005B0D9C464B005B0D06D0634504D09B183C
:1012B000634502D21205891870476246090D114331
:1012C0000905002000B500BF00BF00BD52424B0021
:1012D0005B0DF1D05B1C5B05EED25B0D934102D937
:1012E0001205891A70470BD10B031B13C90FC907CD
:1012F000821C002043411343E4D912051143E1E766
:10130000C90FC9070020DDE7F4464A1805D200F0EE
:101310000FF801D580174008604700F009F8012157
:10132000C907884200D90800404260474A1812D2D3
:10133000400DC90208430121C9070843520D40214D
:101340000901521A521C06D452421F3201D4D04015
:101350007047C017704700207047FEE70100422227
:101360001201D21E004207D002D4521E0018FCD532
:10137000C10A400512058918704700000100EED52A
:101380004042F446FFF7EBFF0122D20711436047CA
:101390008B4200D1824205D98446100062468C46B9
:1013A00019006346DF184C18640D7F0D3AD0661C97
:1013B000760537D0E61B352E34DCDB022B43DB0A07
:1013C0000C0DC9022943C912202E0DDB1700203E47
:1013D00006D01F00F741F3405F400026012A774105
:1013E000C01871410DD217E01700F741F240574085
:1013F000F3415A40B340F3405A4000268018594107
:101400000AD3A21C52050FD0C207012F7241170048
:101410004008CB0718434908641C24054208AF4123
:1014200070416141F0BC7047641C21050020F9E760
:101430006B4010E06B40ABE7F742F3D1E943F1E7D3
:101440002442EFD100200021ECE7F0B40125ED07A4
:101450000F005F40EED40C00871A9C4105D2C01BE0
:10146000A141D219634169406B40AE0ADF184C18A4
:10147000F442E1D2640D7F0DE2D0E61B362ED1DCC2
:10148000DB022B43DB0AA4460C0DC9022943C90A1F
:10149000012E28DC04D1D6075208DF073A435B0847
:1014A000EF0A76429041994114D039423BD1B619A6
:1014B00040414941761C394204D1761C001849410B
:1014C0003942FAD0B9436746B74208D9A41B24056C
:1014D0002143A7E70042EAD13642E8D1A2E7E40A75
:1014E000E10700209EE7202E0BDD203E1F00F34089
:1014F000F7415F40012A002257417E4298419141C5
:101500000BE01700F741F2405740F3415A40B34017
:10151000F3405A407E42904199410A0303D2641E2F
:10152000B619404149410027641E24054208AE41D6
:1015300078416141F0BC7047CA0F00D049420310A6
:101540005A400DD004B500D3404200F009F8009A8B
:10155000D20701D34942124200D5404204BD0000E7
:10156000094214D088420FD30122030C01D1000498
:101570001204002300185B418B4200D35B1A5241D6
:10158000F8D319001000704701000020704708B51B
:1015900000F06EF908BDF0B40E005E400125ED07C5
:1015A0002E40B446AE0ADF184C18F4423BD2F74244
:1015B00041D2640D43D07F0D38D0E41BC902DB0259
:1015C00029432B43CF0ADB0A0600B61A9F4104D2F7
:1015D000641EB6197F41B6185F416812800D241849
:1015E0000018844222DCE80C0021B6197F41B61AAB
:1015F0009F4102D2B6185F413F1C40414941F4D39C
:10160000241C21DD2405B6197F41B61A9F4105D35C
:101610003743C60737430026012F704161416646B4
:101620003143F0BC7047FCD1F74205D20020C143E2
:1016300049054908F3E704D00020C143F1E77F0DD5
:10164000FAD000206146ECE72442FAD1401C614107
:101650000F03F6D30020E2E7F0B50E005E4001254F
:10166000ED072E40B446AE0ADF184C18F44208D2FB
:10167000F7420ED2640D01D07F0D12D100206146D9
:10168000F0BD05D1F74201D87F0D05D10020C1433F
:10169000F0BDFBD1640DF9D00020C14349054908D4
:1016A0008FE0E419C902DB0229432B43DB0A460D14
:1016B000C00231438E4630B487B295B27D432E0CC2
:1016C000ADB2140C7C43A419260C240425439CB20F
:1016D0007C43A419190C7943270CC919A4B20F042F
:1016E0003C43090C000C97B247432E0CBE193543FE
:1016F000ADB2170C4743360CBF19A6B2BF193E0452
:101700003543240C3E0C36199FB24743BF19BCB277
:101710003E0C89191F0C47437F183E043443390C93
:10172000704680B297B247432E0CBE193543ADB216
:10173000170C4743360CBF19A6B2BF193E043543F8
:10174000240C3E0C36199FB24743BF19BCB23E0C65
:1017500089191F0C47437F183E043443390C7746E0
:101760003F0C90B278432E0C80190604ADB22E4384
:10177000050CA0B22D18120C7A435019020C80B23D
:10178000240CA4189AB27A43121914042043120CA0
:1017900089181B0C7B43C91830BCEF0A394203D1AE
:1017A000B61940414941641E6F12BF0DE41B0BDBAB
:1017B000FF19BC4211DA240500274208AE417841E6
:1017C000614166463143F0BD641C05D1401C614156
:1017D000CF0201D34908F4E750E75DE701487047BD
:1017E000000000007801002012422DD0994231D92A
:1017F00070B500251B4209D00C00002112E0110039
:10180000FFF7AEFE0A000021002370BD0942F6D0AA
:101810000024012649186441944200D3A41A764159
:10182000F8D33100012601E0764109D20018644165
:101830006D41A41A9D41F7D2A4185D41B619F5D3A4
:10184000300022002B0070BD1B42CFD108B500F044
:1018500011F808BD01D19042CAD202000B0000214C
:101860000020704780B5012000F006F801BDFEE7BA
:101870007047FEE77047FEE780B500F007F8024AC0
:1018800011001820ABBEFBE72600020010B500F0E7
:101890003BF8020000230024E4431068A04203D078
:1018A00011000220ABBE13605068A04203D0111D8E
:1018B0000220ABBE536010BDF0B583B0040000F051
:1018C00023F8A10047183D680026F643B54216D11B
:1018D00000BF00BF3D68B5420FD100BF09A0009016
:1018E000002C01D1002000E0042001900320029090
:1018F00069460120ABBE05003D6000BF00BF280067
:1019000003B0F0BD3A74740000487047B001002085
:10191000F8B506001BD09F4C3078C00719D580273A
:10192000BF0260680C21014004290BD060680C21C3
:101930000140082948D16068C02149020140780867
:10194000814241D12068074003D07068002800D14F
:10195000E9E1307880071FD5F827FF4360680C2144
:1019600001400CD060680C21014008295FD16068FB
:10197000C0214902014080200002814257D12068E5
:10198000800703D5F068012800D0CCE1206807402B
:101990003069C000384320603078000778D50227CE
:1019A000F0690028606A64D001210143616200F09F
:1019B00097FA0500606A38406AD100F091FA401B3E
:1019C0000228F7D90320F2BD72687908012A08D0ED
:1019D000B248002A09D0052A07D120688A000243AC
:1019E000226020680143216006E02168AC4A0A4079
:1019F0002260216808402060706800280BD000F049
:101A00006FFA050020683840A3D100F069FA401B46
:101A10006528F7D3D6E700F063FA05002068384060
:101A200097D000F05DFA401B6528F7D3CAE7F0684D
:101A3000002820680ED001210143216000F050FAF7
:101A4000050020688007A1D400F04AFA401B022854
:101A5000F7D9B7E701218843206000F041FA05007B
:101A60002068800798D500F03BFA401B0228F7D980
:101A7000A8E701218843606200F032FA0500606A3D
:101A8000384005D000F02CFA401B0228F7D999E71E
:101A90003078400761D50020009080204005E16942
:101AA000014008D1E1690143E161E169084000902A
:101AB0000098012000909E4F3868C0050FD4386808
:101AC000A10D0143396000F00BFA05003868C0052C
:101AD00005D400F005FA401B6528F7D372E7B0681B
:101AE000012809D0002801D1206A0AE00528206ACF
:101AF00007D1042101432162206A012101432162AF
:101B000006E0012188432062206A04218843206284
:101B10000227B06800280CD000F0E2F90500206A26
:101B2000384013D100F0DCF9401B82498842F6D3DB
:101B300048E700F0D5F90500206A384006D000F0EB
:101B4000CFF9401B7B498842F6D33BE70098002839
:101B500003D0E06978490140E1613078C00621D5C1
:101B60007069F825ED430422012851D1606B0243CE
:101B70006263606B01210143616300F0B1F907000A
:101B8000606B800708D400F0ABF9C01B0228F7D9BE
:101B900018E700BF00100240606B0540B069C0004C
:101BA000284360630C273078800614D5606838407D
:101BB0000C2809D060683840082843D16068790350
:101BC0000140780381423DD1606BC00303D5306A88
:101BD000012800D0A7E0706A002800D1A5E0616864
:101BE0000F40082F00D189E08027BF0495490228C3
:101BF000206875D10140216000F072F9050020686D
:101C000038404FD000F06CF9401B0228F7D9D9E6D4
:101C10000421C9438842606B02D101406163BBE784
:101C200002436263606B01218843606300F058F9EE
:101C30000500606B8007B5D500F052F9401B022803
:101C4000F7D9BFE6802040020090306A002813D008
:101C5000802040020090606B00990143616300F0B6
:101C60003FF90500606B00990140B4D100F038F9EC
:101C7000401B0228F6D9A5E6606B09490140616363
:101C800000F02EF90500606B00990140A3D000F030
:101C900027F9401B0228F6D994E600BFFFFFFBFF9F
:101CA000FFFFFEFFE06A0F218843316B0143E162D1
:101CB000606879490140F06A0843B16A0143616094
:101CC000206879080143216000F00AF905002068C6
:101CD00038402AD100F004F9401B0228F7D971E6F8
:101CE0000140216000F0FCF80500206838401CD05D
:101CF00000F0F6F8401B0228F7D963E6012812D05D
:101D00006068E16AC02252020240B36A9A420AD174
:101D10000907090F326B914205D1F0218903014077
:101D2000F06A814201D00120F2BD0020F2BD000026
:101D30000070004089130000FFFFFFEFF8B50400BA
:101D400065D0009155480068C107C90F00988142CD
:101D50000CD25248016801229143009A0A43026062
:101D60000068C107C90F0098814250D121684C4DCD
:101D7000022001420CD0490704D56968E022D20054
:101D80000A436A606968F0229143A2680A436A6064
:101D90000127216839402AD06168012902D12868C9
:101DA000800308E0022902D12868800103E00329AA
:101DB00003D1686BC00303D429E02A68104026D001
:101DC0006868032290430143696000F089F80600C7
:101DD00068680C21014060688000814207D000F0F3
:101DE0007FF8801B2F498842F2D30320F2BD2B4895
:101DF000009902683A4091420BD20168B943009AB7
:101E00000A430260006807400098874201D0012021
:101E1000F2BD2078400705D5686823490140E06895
:101E20000843686000F010F820496A681206120F33
:101E3000895CC8401E490860002000F057F8002067
:101E4000F2BD0000FFFFFFFEF0B51A490B681A480B
:101E50001A4A0C241C40082C02D00C2C1AD0F0BDBD
:101E60000F2500BF16A49E0C2E40A45D18A6896AFB
:101E70000D40715DC0256D022E001E4080277F023F
:101E8000BE4203D02B40AB4200D11000FFF768FBED
:101E90006043F0BD1000F0BDFF7FC2FF0020024094
:101EA0000010024089130000FFF8FFFF5C320008B9
:101EB0007C0000200410024000127A00006CDC025A
:101EC00002030405060708090A0B0C0D0E0F10107B
:101ED0000102030405060708090A0B0C0D0E0F107A
:101EE00001484068704700BF7000002038B5050009
:101EF0000D4CFA2080002178FFF732FB01000B48DF
:101F00000068FFF72DFB00F03DF800280AD1042DF2
:101F100008D2002229000020C04300F026F8A56066
:101F2000002032BD012032BD700000207C00002066
:101F300010B5C20018231340FF249C40E2438907D8
:101F4000090E9940030004D418489B089B00C01850
:101F500006E0174B0007000F0838800880001818AB
:101F600003681A401143016010BD80B5FFF7E0FF20
:101F700001BD010005D40121C006C00E81400D48FD
:101F80000160704710B5401E80214904884201D38A
:101F9000012010BD084C606003210020C043FFF702
:101FA000C7FF0020A0600721216010BD00E400E011
:101FB0001CED00E000E100E010E000E0F8B50400F6
:101FC0000025002C01D10120F2BDA06B002805D115
:101FD000E06334216054200000F03DFA102101221A
:101FE000A06B084003D1236804209E68064000D0FF
:101FF00090E0A76B4A4E3E4002273743A7639E6896
:10200000B607B60F012E05D11E6816400FD1DE6847
:1020100036040CD4DE681827BE43A7683743DF6058
:1020200023681E69B600B608676837431F612368D6
:10203000DE683C4F3740DF60A36A012B01D0860287
:1020400000E000262369022B01D1009000E00095FA
:10205000A37E207E8003677EFF0307435803384337
:102060000643E0683043009E06432420205C400085
:102070003043E67E012E0CD1002B03D10300080370
:10208000184306E0A36B20261E43A663E36B1343AD
:10209000E363E369FF26C236B34202D00343206AFA
:1020A00018432368DE680643DE60E36A0E06B34227
:1020B0000DD0012B0BD0022B09D0032B07D0042B02
:1020C00005D0052B03D0062B01D0072B0CD123689C
:1020D0005E690727BE435E6123685E692C27E75D62
:1020E0007F077F0F37435F610223DB432668F66873
:1020F0002A4F3740874205D1E563A06B03401A435E
:10210000A2630BE0A06B03401943A163E06B104393
:10211000E06302E0A06B0143A16301252800F2BD4A
:10212000FFFEFFFF1902FEFFF8B5040000250020A6
:1021300004262168896831402CD13421615C012951
:1021400028D02700343701213970617E012904D05D
:10215000200000F01DF901001DD1A16B134A0A40B7
:10216000B1011143A163E5633D701C212268116038
:102170006269082A09D121684A68B2434A60216825
:102180004A68182313434B6003E0226853681943DD
:10219000516005E00220F2BD00000000E7FF3F8330
:1021A00021688A6816438E60F2BD0000FEF1FFFFD1
:1021B0000068006C7047F8B504002068012708210A
:1021C000102504220368134002D04368134005D150
:1021D00003680B4031D043680B402ED0A36B2B40DB
:1021E00003D1A36B8E011E43A663C368C0263601CC
:1021F0001E401CD1A37E002B19D10068014016D0CF
:102200002068806802400BD1206840680C21884318
:1022100021684860A06B7C4901403943A16306E016
:10222000A06B20210143A163E06B3843E0632000F1
:1022300000F04AF90C2021680860802620680068B8
:1022400030400CD020684068304008D0A06B290393
:102250000143A163200000F05FFA20680660206857
:102260000168294012D0416829400FD0A16A012994
:1022700002D0C1680F4007D0E16B02220A43E2633B
:102280000560200000F049FA20680560F1BDF8B54E
:1022900004000025002600953420205C012801D18F
:1022A0000220F2BD01203423E054226893685B07CA
:1022B00065D40B689840009054484B68544FBB421B
:1022C000936A009F49D01F439762E26A80235B05AF
:1022D0009A421FD0012A1DD0022A1BD0032A19D0EE
:1022E000042A17D0052A15D0062A13D0072A11D0A0
:1022F00022688B6857697F077F0FBB420AD05369FA
:102300000727BB435361226853690F7A7F077F0F0A
:102310001F4357610A68102A19D0112A1AD0122AAD
:1023200032D18022520403681A43026008681028E0
:102330002AD1384800683849FFF712F90A21484382
:102340000090009800281FD00098401EF8E78022D7
:102350001204E8E78022D203E5E7BB4393620968F1
:10236000102908D0112908D012290DD12B49026853
:102370001140016008E02A49F9E72A49F7E7A16B13
:1023800020220A43A2630126342025543000F2BDE6
:10239000F8B50500002000902868012481688907AD
:1023A000890F012905D1016821402AD1C16809049A
:1023B00027D4102781681C4A0A401AD1816821431A
:1023C0008160144800681449FFF7CAF801E00098DA
:1023D000401E009000980028F9D1FFF781FD06000B
:1023E0002868006820400CD1FFF77AFD801B032885
:1023F000F6D3A86B0743AF63E86B0443EC6301209B
:10240000F2BD0020F2BD0000FFFEFFFF08270140E3
:10241000011000007C00002040420F00FFFFFFFE83
:10242000FFFF7FFFFFFFBFFF1700008081B001208B
:1024300015490A6802430A600A6810400090009833
:10244000802040054A6802434A604968084000907D
:10245000009801B0704700680C49884200D070476E
:1024600080B5480D08490A6802430A6009680840B7
:1024700000900098002200210C20FFF776FD0C2030
:10248000FFF777FD01BD0000181002400024014055
:102490007C490868012205E09300CB58984200DA95
:1024A0001800521CCB6D9A42F6DB704775490868DC
:1024B000012205E09300CB58834200DA1800521C39
:1024C000CB6D9A42F6DB7047FEB501680968490793
:1024D0006DD500256B4C616E01290DD100260700DA
:1024E00005E03800FFF764FEB1006050761CE06D37
:1024F0008642F6DB38006566E16D226E8A4200D1C5
:102500002566226E531C8B4201D1266802E09100A1
:1025100061184E68216D6165FFF74AFE0100206E6B
:1025200080002150216500BF73A000F0F7F8564FDE
:10253000380000F041F9FFF7ABFF0500FFF7B6FFE9
:10254000281AFEF71BFF4900490800900191A06D71
:10255000FEF714FF009A019BFEF76CFE24D24B4D50
:10256000206E80002058801B00280ADD66A000F045
:10257000D5F80022A16E89B2280000F0FCF90122F2
:102580000AE000BF62A000F0C9F80122A16E89B282
:10259000280000F0F0F90022E16E89B2280000F076
:1025A000EAF9380000F008F9206E401C2066F7BDFB
:1025B000F8B586B0334FF86D002803DD8100380090
:1025C00000F0EEF900F0F4F900F068F814220021B0
:1025D00001A800F0FDF9802000032D490A6802439C
:1025E0000A6009680840009000980022C02127482E
:1025F00000F0C1F9C0200190012602960025039544
:102600000320049001A9214800F0F6F80C220021D3
:10261000684600F0DDF91F4C1F4820606560A5602A
:10262000E560266104206061A561FF20C230E061A1
:10263000256224202554A6622000FFF7BFFC002855
:1026400001D000F057F81020009000020190072000
:10265000029069462000FFF71AFE002801D000F022
:1026600049F82000FFF760FD0122B96E89B20748E2
:1026700000F081F9C82000F0B5F92000FFF754FD03
:10268000F8E7000000000020C80000200008004813
:1026900014100240D80200200024014018B591B067
:1026A0003422002104A800F093F91022002168468A
:1026B00000F08EF91220049001200790099010205C
:1026C00008900A9000240D9404A8FFF721F900282F
:1026D00001D072B6FEE707200090019402940394A3
:1026E00000216846FFF72AFB002801D072B6FEE7FA
:1026F00012B010BD72B6FEE7616B7475616C6E79D5
:102700003A202575200000004D616C656A650A005D
:10271000526F736E69650A00704770470EB4C0B59A
:10272000020003A801900020009001AB01210448A1
:1027300078440C30FDF7C4FC029906B0084700BF8E
:10274000F10A0000F8B5060000BF00BF3088800421
:102750002DD5002574680027FF4300E024180320CE
:102760003056F1688C4208D20A1B210000F04EF965
:10277000B84208D00028F1D105E00022002100F085
:1027800045F9B84200D101257068F060B061F06190
:102790003088002D08D0802189000143318030002D
:1027A00000BF00BF3800F2BD114901403180300048
:1027B00000BF00BF0020F2BDF8B5002815D100BF52
:1027C00000BF00240B4D08260027FF43286800287F
:1027D00004D0FFF7B7FF002800D53C002D1D761E62
:1027E000F4D100BF00BF2000F2BDFFF7ABFFF2BD88
:1027F000FFDF000058010020FFB5002201230193F4
:102800002BE0052603E05F4EB042FAD10426AE402D
:102810002643029C26605C4C2668DC4326404D68BB
:10282000ED0300D51E43584D2E606E6826404F685C
:10283000BF0300D51E436E60AE6826404F68FF029E
:1028400000D51E43AE60EE6834404E68B60202D535
:1028500026001C003443EC60521C0B681C00D44062
:1028600000D187E0019D95402B40F5D0540003270F
:10287000A740FE4302964E68012E05D0022E03D0DB
:10288000112E01D0122E0FD18768029E3E40CF68D4
:10289000A740374387604668AE434D682D09019FC6
:1028A0002F40974037434760C568029E2E408D6891
:1028B000A5403543C56095006E4675704D68022D84
:1028C00001D0122D1AD1D508AD0045192E6A0396F4
:1028D0006E4677781C263E406F463E70039EB44697
:1028E0000F276E463678B7406646BE43B4460F693A
:1028F0006E463678B740664637432F620768032630
:10290000029D3D404F683740BC4627006446BC40AE
:102910002C4304604C68E4009ED51C4C2468019D47
:1029200025431A4C25602468019D25400295029C90
:10293000174C9508AD006419029424686D466F78B1
:102940000C253D400F27AF40BC439027FF05B84200
:1029500001D100265BE70F4FB84201D1019E56E737
:102960000D4FB84201D1022651E70C4FB84200D0BA
:1029700049E74CE7FFBD002A01D0816170478162C1
:102980007047000000100048000401401810024089
:10299000080001400004004800080048000C0048FE
:1029A000002200BF094202D0491E4254FCD17047A8
:1029B00080B50648016810220A4302600020FFF734
:1029C00095FAFFF733FD002002BD00000020024011
:1029D00010B504000800110002002000FFF7E2FF1C
:1029E000200010BD38B50500FFF77AFA040000207A
:1029F000C043854202D0044800782D18FFF770FAD2
:102A0000001BA842FAD331BD7000002080B5002819
:102A100002D400F003F802BD002002BD80B50029F9
:102A200001D1002002BD012801D0022802D100F00E
:102A300004F802BD00F011F802BD30B583B00C00FF
:102A400015000120FEF738FF0090019402956946B9
:102A50000520ABBE281A03B030BD18B583B0030003
:102A6000140000930191029469460520ABBE012237
:102A70001900201A00F021F804B010BD30B4002174
:102A800000232E4A14002568854210D05B1CA568DF
:102A900085420CD05B1C2569854208D05B1CA5696A
:102AA000854204D05B1C2034102BECD303E0D8000B
:102AB00010180160416030BC704770B400241F4B97
:102AC0001D002E688E4210D0641CAE688E420CD061
:102AD000641C2E698E4208D0641CAE698E4204D0FC
:102AE000641C2035102CECD307E00100E4001B1916
:102AF000012A01D15A688918596070BC704710B416
:102B000000220E490B001C68844210D0521C9C68A5
:102B100084420CD0521C1C69844208D0521C9C690F
:102B2000844204D0521C2033102AECD303E0D0009E
:102B30000818406800E0002010BC7047B801002071
:102B400010B5040000BF00BF200000F005F804002D
:102B500000BF00BF200010BD38B504000F340721AE
:102B60008C43A0422BD2082C04D2082402E0083067
:102B700000F049F841490A68100005D1002207E039
:102B80001D68A5420DD2181D0368002BF8D11268EC
:102B9000081D00E0181D036893420CD01D68A54273
:102BA000F8D300280BD002681368083BA34208D270
:102BB000536803600FE000F063F80028D7D10020CD
:102BC00032BD131903605368151D2B5113681B1B6D
:102BD00005682B6014600068002804D04368002B4F
:102BE00001D0001D00E0002008601000083032BD58
:102BF00010B5040006D000BF00BF200000F003F8AD
:102C000000BF00BF10BD002800D1704770B4083865
:102C10000268072A30D951072ED118494B68002B7A
:102C200001D0984203D24360486017E02B005D68F2
:102C3000002D01D08542F9D31D685E19B0421BD327
:102C4000864203D1A8181860180007E05C68002CC1
:102C500002D0821894420FD3446058604268002A20
:102C60000AD00368C418944206D100240C6011688D
:102C7000591801605168416070BC7047180300200A
:102C800007490868002801D000207047054807223E
:102C90009043086004499143091A0160704700BFDE
:102CA000240300202F07002028090020F8B5050084
:102CB0000E0014001F002878800739D02800FFF785
:102CC0007BFD002834D100963046002801D003C88F
:102CD0002418012F32D12888C00416D52A00443286
:102CE000296A280000F052F806002A6B002A00D159
:102CF0002A69E968280000F049F8A11B0C1A6A69E2
:102D0000E968280000F042F8241A002C05D1002FB1
:102D10000AD10020C04384420AD03A002100032097
:102D2000285600F039F804000020C043844208D13E
:102D3000232000BF00BF0020C043F2BD022FE6D118
:102D4000EBE72888C021890101400ED06868E8605F
:102D500028616861A8616868E861280044302862D9
:102D6000280030306862002028630098002804D0D2
:102D7000083003C82A00343203C2288802490140BF
:102D800029800020F2BD00BFFFCE0000914201D299
:102D9000501A7047002070473EB504000B001D001C
:102DA000012A03D1FFF7ABFE2D180BE0022A07D151
:102DB00000940020019069460C20ABBEC51801E0CC
:102DC000002A0CD10094019569460A20ABBE002868
:102DD00005D1002221002800FFF76FFE01E000204E
:102DE000C04303B030BDFEE738B50400E068A16918
:102DF000884255D321880A002A4B1340022B09D060
:102E0000080402D58020800001E08420C00108432E
:102E100020803FE0C025ED012A40AA4207D1A168E9
:102E2000884204D32000FFF7C7FC002832D1208855
:102E3000E90801401ED1606821004431884219D15F
:102E400080208000FFF77CFE002806D1200044305F
:102E50006060E060401CA0600CE0218840220A43D2
:102E60002280E060802189004118A160606060617B
:102E70006068E06160682061A068A0612078400718
:102E80000BD502220021200000F00EF80021C943DA
:102E9000884202D10020C04332BD208805432580EE
:102EA000002032BD0290000070B504000D00160035
:102EB00000BF00BF33002A0000212000FFF7F6FE0C
:102EC0000500200000BF00BF280070BD1CB5002118
:102ED000027812062ED50023254A146800948442F5
:102EE00002D19B00D15022E0012354680094844217
:102EF000F7D00223946800948442F2D00323D4686C
:102F000000948442EDD00423146900948442E8D0F4
:102F10000523546900948442E3D006239469009405
:102F20008442DED00723D46900948442D9D000F0D3
:102F300021F813BD0180C943C170010044314160D3
:102F400001004431C160010044310161010044319C
:102F5000416101004431816101004431C1610100DE
:102F60004431016201003031416213BD00000000B4
:102F70005801002080B5FFF73BFE01BD70B504008D
:102F80000DD02078800703D003202056002809D5D3
:102F900000BF00BF2000FFF799FF00BF00BF002067
:102FA000C04370BD2000FFF707FC060000BF00BF54
:102FB0002078400602D56068FFF7DCFF00256560D9
:102FC00003202056022805D900F018F8002801D067
:102FD0000026F643E06B002809D000F01BF800281B
:102FE00001D00026F643E06BFFF7C4FFE563200045
:102FF000FFF76CFF00BF00BF300070BD1CB50200C2
:10300000009269460220ABBE04001000FFF736FDB7
:10301000200016BDE0B50090FEF7BCF801906946AF
:103020000E20ABBE03B000BD686A6C747A4C000021
:103030007072696E74665F733A20256E20646973DE
:10304000616C6C6F776564007072696E74663A20AB
:1030500062616420256E20617267756D656E740013
:103060007072696E74665F733A20626164202573C2
:1030700020617267756D656E7400000000000000CD
:103080006E616E004E414E00696E6600494E46000C
:10309000300038B50C00C5B2200000BF00BFE068AA
:1030A000A169884204D32000FFF79EFE00280FD4B8
:1030B000E068411CE16005702088010503D44005EB
:1030C0000CD50A2D0AD12000FFF776FB002805D089
:1030D000200000BF00BF0020C04332BD200000BF61
:1030E00000BF280032BDFEE738B50D4C082520682A
:1030F000002806D00178890703D003214156002912
:1031000003D5241D6D1EF2D102E0FFF737FFF8E76B
:10311000002200210020C043FFF778FC31BD00BF32
:103120005801002070B40123002413E00168001D41
:10313000194202D04D466918491E0C60091D121F24
:10314000042AFAD20D00960701D50C80AD1C1A4056
:1031500000D02C700268001D002AE7D170BC7047B7
:1031600010B5074979441831064C7C44163404E004
:10317000081D0A68891888470100A142F8D110BDCE
:1031800008000000240000009DFFFFFF7001000008
:10319000B80100200000000037DFFFFF0C01000035
:1031A0000801000000000020FEE7FEE770477047BE
:1031B00080B500F009F801BD80B50248FEF7FBFFBD
:1031C00001BD0000D8020020024841680278891839
:1031D000416070477000002000F00DF8002801D019
:1031E000FFF7BEFF00BF00BF002000BF00BFFFF71A
:1031F000DFF900F002F80120704780B500F002F816
:1032000001BDFEE70746FFF76FFF3846FEF734FBC8
:10321000FBE7FEE70548014603B4684680F30988EA
:1032200000BF00BF00BF00BFFFF7D6FFA5EDF5FE52
:1032300038B505000C00200000F006F8A04200D0D0
:103240000025280032BDFEE780B50249FFF721FFC7
:1032500002BD00BFC8000020704700000000000051
:103260000000000001020304060708090148804726
:10327000014800475932000815320008FEE7FEE712
:10328000FEE7FEE7FEE7FEE7FEE7FEE7FEE7FEE716
:10329000FEE7FEE7FEE7FEE7FEE7FEE7FEE7FEE706
:1032A000FEE7FEE7FEE70000F24600011203595276
:1032B000145D1201081240044380000C2101220415
:1032C000081002127A0001091003C4000020C5048E
:1032D00052C404211BA10852B00CF10B01100702CB
:1032E00004010188020020D80452880421346108B6
:1032F000F003130C010020F8485002080202384085
:1033000052380421346108125448F3114001481125
:10331000EC1320C804F206102CF00207A6320008B5
:0C3320000452FF01E3A211146300001C22
:0400000508003215A8
:00000001FF
